{
  "_format": "hh-sol-artifact-1",
  "contractName": "Hello",
  "sourceName": "contracts/Hello.sol",
  "abi": [
    {
      "inputs": [],
      "stateMutability": "nonpayable",
      "type": "constructor"
    },
    {
      "inputs": [],
      "name": "getMessage",
      "outputs": [
        {
          "internalType": "string",
          "name": "",
          "type": "string"
        }
      ],
      "stateMutability": "view",
      "type": "function"
    },
    {
      "inputs": [],
      "name": "message",
      "outputs": [
        {
          "internalType": "string",
          "name": "",
          "type": "string"
        }
      ],
      "stateMutability": "view",
      "type": "function"
    },
    {
      "inputs": [],
      "name": "owner",
      "outputs": [
        {
          "internalType": "address",
          "name": "",
          "type": "address"
        }
      ],
      "stateMutability": "view",
      "type": "function"
    }
  ],
  "bytecode": "0x60806040526040518060400160405280600b81526020017f48656c6c6f20776f726c640000000000000000000000000000000000000000008152506001908161004891906102eb565b5034801561005557600080fd5b50336000806101000a81548173ffffffffffffffffffffffffffffffffffffffff021916908373ffffffffffffffffffffffffffffffffffffffff1602179055506103bd565b600081519050919050565b7f4e487b7100000000000000000000000000000000000000000000000000000000600052604160045260246000fd5b7f4e487b7100000000000000000000000000000000000000000000000000000000600052602260045260246000fd5b6000600282049050600182168061011c57607f821691505b60208210810361012f5761012e6100d5565b5b50919050565b60008190508160005260206000209050919050565b60006020601f8301049050919050565b600082821b905092915050565b6000600883026101977fffffffffffffffffffffffffffffffffffffffffffffffffffffffffffffffff8261015a565b6101a1868361015a565b95508019841693508086168417925050509392505050565b6000819050919050565b6000819050919050565b60006101e86101e36101de846101b9565b6101c3565b6101b9565b9050919050565b6000819050919050565b610202836101cd565b61021661020e826101ef565b848454610167565b825550505050565b600090565b61022b61021e565b6102368184846101f9565b505050565b5b8181101561025a5761024f600082610223565b60018101905061023c565b5050565b601f82111561029f5761027081610135565b6102798461014a565b81016020851015610288578190505b61029c6102948561014a565b83018261023b565b50505b505050565b600082821c905092915050565b60006102c2600019846008026102a4565b1980831691505092915050565b60006102db83836102b1565b9150826002028217905092915050565b6102f48261009b565b67ffffffffffffffff81111561030d5761030c6100a6565b5b6103178254610104565b61032282828561025e565b600060209050601f8311600181146103555760008415610343578287015190505b61034d85826102cf565b8655506103b5565b601f19841661036386610135565b60005b8281101561038b57848901518255600182019150602085019450602081019050610366565b868310156103a857848901516103a4601f8916826102b1565b8355505b6001600288020188555050505b505050505050565b610388806103cc6000396000f3fe608060405234801561001057600080fd5b50600436106100415760003560e01c80638da5cb5b14610046578063ce6d41de14610064578063e21f37ce14610082575b600080fd5b61004e6100a0565b60405161005b9190610225565b60405180910390f35b61006c6100c4565b60405161007991906102d0565b60405180910390f35b61008a610156565b60405161009791906102d0565b60405180910390f35b60008054906101000a900473ffffffffffffffffffffffffffffffffffffffff1681565b6060600180546100d390610321565b80601f01602080910402602001604051908101604052809291908181526020018280546100ff90610321565b801561014c5780601f106101215761010080835404028352916020019161014c565b820191906000526020600020905b81548152906001019060200180831161012f57829003601f168201915b5050505050905090565b6001805461016390610321565b80601f016020809104026020016040519081016040528092919081815260200182805461018f90610321565b80156101dc5780601f106101b1576101008083540402835291602001916101dc565b820191906000526020600020905b8154815290600101906020018083116101bf57829003601f168201915b505050505081565b600073ffffffffffffffffffffffffffffffffffffffff82169050919050565b600061020f826101e4565b9050919050565b61021f81610204565b82525050565b600060208201905061023a6000830184610216565b92915050565b600081519050919050565b600082825260208201905092915050565b60005b8381101561027a57808201518184015260208101905061025f565b60008484015250505050565b6000601f19601f8301169050919050565b60006102a282610240565b6102ac818561024b565b93506102bc81856020860161025c565b6102c581610286565b840191505092915050565b600060208201905081810360008301526102ea8184610297565b905092915050565b7f4e487b7100000000000000000000000000000000000000000000000000000000600052602260045260246000fd5b6000600282049050600182168061033957607f821691505b60208210810361034c5761034b6102f2565b5b5091905056fea2646970667358221220ef9bede1e0fb48c61fd7fa7018dddad27bd9caf64ed256e7cd833cf45dda9f4d64736f6c634300081c0033",
  "linkReferences": {},
  "deployedLinkReferences": {}
}