{
  "contracts/Hello.sol": {
    "Hello": {
      "abi": [
        {
          "inputs": [],
          "stateMutability": "nonpayable",
          "type": "constructor"
        },
        {
          "inputs": [],
          "name": "getMessage",
          "outputs": [
            {
              "internalType": "string",
              "name": "",
              "type": "string"
            }
          ],
          "stateMutability": "view",
          "type": "function"
        },
        {
          "inputs": [],
          "name": "message",
          "outputs": [
            {
              "internalType": "string",
              "name": "",
              "type": "string"
            }
          ],
          "stateMutability": "view",
          "type": "function"
        },
        {
          "inputs": [],
          "name": "owner",
          "outputs": [
            {
              "internalType": "address",
              "name": "",
              "type": "address"
            }
          ],
          "stateMutability": "view",
          "type": "function"
        }
      ],
      "evm": {
        "bytecode": {
          "linkReferences": {},
          "object": "60806040526040518060400160405280600b81526020017f48656c6c6f20776f726c640000000000000000000000000000000000000000008152506001908161004891906102eb565b5034801561005557600080fd5b50336000806101000a81548173ffffffffffffffffffffffffffffffffffffffff021916908373ffffffffffffffffffffffffffffffffffffffff1602179055506103bd565b600081519050919050565b7f4e487b7100000000000000000000000000000000000000000000000000000000600052604160045260246000fd5b7f4e487b7100000000000000000000000000000000000000000000000000000000600052602260045260246000fd5b6000600282049050600182168061011c57607f821691505b60208210810361012f5761012e6100d5565b5b50919050565b60008190508160005260206000209050919050565b60006020601f8301049050919050565b600082821b905092915050565b6000600883026101977fffffffffffffffffffffffffffffffffffffffffffffffffffffffffffffffff8261015a565b6101a1868361015a565b95508019841693508086168417925050509392505050565b6000819050919050565b6000819050919050565b60006101e86101e36101de846101b9565b6101c3565b6101b9565b9050919050565b6000819050919050565b610202836101cd565b61021661020e826101ef565b848454610167565b825550505050565b600090565b61022b61021e565b6102368184846101f9565b505050565b5b8181101561025a5761024f600082610223565b60018101905061023c565b5050565b601f82111561029f5761027081610135565b6102798461014a565b81016020851015610288578190505b61029c6102948561014a565b83018261023b565b50505b505050565b600082821c905092915050565b60006102c2600019846008026102a4565b1980831691505092915050565b60006102db83836102b1565b9150826002028217905092915050565b6102f48261009b565b67ffffffffffffffff81111561030d5761030c6100a6565b5b6103178254610104565b61032282828561025e565b600060209050601f8311600181146103555760008415610343578287015190505b61034d85826102cf565b8655506103b5565b601f19841661036386610135565b60005b8281101561038b57848901518255600182019150602085019450602081019050610366565b868310156103a857848901516103a4601f8916826102b1565b8355505b6001600288020188555050505b505050505050565b610388806103cc6000396000f3fe608060405234801561001057600080fd5b50600436106100415760003560e01c80638da5cb5b14610046578063ce6d41de14610064578063e21f37ce14610082575b600080fd5b61004e6100a0565b60405161005b9190610225565b60405180910390f35b61006c6100c4565b60405161007991906102d0565b60405180910390f35b61008a610156565b60405161009791906102d0565b60405180910390f35b60008054906101000a900473ffffffffffffffffffffffffffffffffffffffff1681565b6060600180546100d390610321565b80601f01602080910402602001604051908101604052809291908181526020018280546100ff90610321565b801561014c5780601f106101215761010080835404028352916020019161014c565b820191906000526020600020905b81548152906001019060200180831161012f57829003601f168201915b5050505050905090565b6001805461016390610321565b80601f016020809104026020016040519081016040528092919081815260200182805461018f90610321565b80156101dc5780601f106101b1576101008083540402835291602001916101dc565b820191906000526020600020905b8154815290600101906020018083116101bf57829003601f168201915b505050505081565b600073ffffffffffffffffffffffffffffffffffffffff82169050919050565b600061020f826101e4565b9050919050565b61021f81610204565b82525050565b600060208201905061023a6000830184610216565b92915050565b600081519050919050565b600082825260208201905092915050565b60005b8381101561027a57808201518184015260208101905061025f565b60008484015250505050565b6000601f19601f8301169050919050565b60006102a282610240565b6102ac818561024b565b93506102bc81856020860161025c565b6102c581610286565b840191505092915050565b600060208201905081810360008301526102ea8184610297565b905092915050565b7f4e487b7100000000000000000000000000000000000000000000000000000000600052602260045260246000fd5b6000600282049050600182168061033957607f821691505b60208210810361034c5761034b6102f2565b5b5091905056fea2646970667358221220ef9bede1e0fb48c61fd7fa7018dddad27bd9caf64ed256e7cd833cf45dda9f4d64736f6c634300081c0033",
          "opcodes": "PUSH1 0x80 PUSH1 0x40 MSTORE PUSH1 0x40 MLOAD DUP1 PUSH1 0x40 ADD PUSH1 0x40 MSTORE DUP1 PUSH1 0xB DUP2 MSTORE PUSH1 0x20 ADD PUSH32 0x48656C6C6F20776F726C64000000000000000000000000000000000000000000 DUP2 MSTORE POP PUSH1 0x1 SWAP1 DUP2 PUSH2 0x48 SWAP2 SWAP1 PUSH2 0x2EB JUMP JUMPDEST POP CALLVALUE DUP1 ISZERO PUSH2 0x55 JUMPI PUSH1 0x0 DUP1 REVERT JUMPDEST POP CALLER PUSH1 0x0 DUP1 PUSH2 0x100 EXP DUP2 SLOAD DUP2 PUSH20 0xFFFFFFFFFFFFFFFFFFFFFFFFFFFFFFFFFFFFFFFF MUL NOT AND SWAP1 DUP4 PUSH20 0xFFFFFFFFFFFFFFFFFFFFFFFFFFFFFFFFFFFFFFFF AND MUL OR SWAP1 SSTORE POP PUSH2 0x3BD JUMP JUMPDEST PUSH1 0x0 DUP2 MLOAD SWAP1 POP SWAP2 SWAP1 POP JUMP JUMPDEST PUSH32 0x4E487B7100000000000000000000000000000000000000000000000000000000 PUSH1 0x0 MSTORE PUSH1 0x41 PUSH1 0x4 MSTORE PUSH1 0x24 PUSH1 0x0 REVERT JUMPDEST PUSH32 0x4E487B7100000000000000000000000000000000000000000000000000000000 PUSH1 0x0 MSTORE PUSH1 0x22 PUSH1 0x4 MSTORE PUSH1 0x24 PUSH1 0x0 REVERT JUMPDEST PUSH1 0x0 PUSH1 0x2 DUP3 DIV SWAP1 POP PUSH1 0x1 DUP3 AND DUP1 PUSH2 0x11C JUMPI PUSH1 0x7F DUP3 AND SWAP2 POP JUMPDEST PUSH1 0x20 DUP3 LT DUP2 SUB PUSH2 0x12F JUMPI PUSH2 0x12E PUSH2 0xD5 JUMP JUMPDEST JUMPDEST POP SWAP2 SWAP1 POP JUMP JUMPDEST PUSH1 0x0 DUP2 SWAP1 POP DUP2 PUSH1 0x0 MSTORE PUSH1 0x20 PUSH1 0x0 KECCAK256 SWAP1 POP SWAP2 SWAP1 POP JUMP JUMPDEST PUSH1 0x0 PUSH1 0x20 PUSH1 0x1F DUP4 ADD DIV SWAP1 POP SWAP2 SWAP1 POP JUMP JUMPDEST PUSH1 0x0 DUP3 DUP3 SHL SWAP1 POP SWAP3 SWAP2 POP POP JUMP JUMPDEST PUSH1 0x0 PUSH1 0x8 DUP4 MUL PUSH2 0x197 PUSH32 0xFFFFFFFFFFFFFFFFFFFFFFFFFFFFFFFFFFFFFFFFFFFFFFFFFFFFFFFFFFFFFFFF DUP3 PUSH2 0x15A JUMP JUMPDEST PUSH2 0x1A1 DUP7 DUP4 PUSH2 0x15A JUMP JUMPDEST SWAP6 POP DUP1 NOT DUP5 AND SWAP4 POP DUP1 DUP7 AND DUP5 OR SWAP3 POP POP POP SWAP4 SWAP3 POP POP POP JUMP JUMPDEST PUSH1 0x0 DUP2 SWAP1 POP SWAP2 SWAP1 POP JUMP JUMPDEST PUSH1 0x0 DUP2 SWAP1 POP SWAP2 SWAP1 POP JUMP JUMPDEST PUSH1 0x0 PUSH2 0x1E8 PUSH2 0x1E3 PUSH2 0x1DE DUP5 PUSH2 0x1B9 JUMP JUMPDEST PUSH2 0x1C3 JUMP JUMPDEST PUSH2 0x1B9 JUMP JUMPDEST SWAP1 POP SWAP2 SWAP1 POP JUMP JUMPDEST PUSH1 0x0 DUP2 SWAP1 POP SWAP2 SWAP1 POP JUMP JUMPDEST PUSH2 0x202 DUP4 PUSH2 0x1CD JUMP JUMPDEST PUSH2 0x216 PUSH2 0x20E DUP3 PUSH2 0x1EF JUMP JUMPDEST DUP5 DUP5 SLOAD PUSH2 0x167 JUMP JUMPDEST DUP3 SSTORE POP POP POP POP JUMP JUMPDEST PUSH1 0x0 SWAP1 JUMP JUMPDEST PUSH2 0x22B PUSH2 0x21E JUMP JUMPDEST PUSH2 0x236 DUP2 DUP5 DUP5 PUSH2 0x1F9 JUMP JUMPDEST POP POP POP JUMP JUMPDEST JUMPDEST DUP2 DUP2 LT ISZERO PUSH2 0x25A JUMPI PUSH2 0x24F PUSH1 0x0 DUP3 PUSH2 0x223 JUMP JUMPDEST PUSH1 0x1 DUP2 ADD SWAP1 POP PUSH2 0x23C JUMP JUMPDEST POP POP JUMP JUMPDEST PUSH1 0x1F DUP3 GT ISZERO PUSH2 0x29F JUMPI PUSH2 0x270 DUP2 PUSH2 0x135 JUMP JUMPDEST PUSH2 0x279 DUP5 PUSH2 0x14A JUMP JUMPDEST DUP2 ADD PUSH1 0x20 DUP6 LT ISZERO PUSH2 0x288 JUMPI DUP2 SWAP1 POP JUMPDEST PUSH2 0x29C PUSH2 0x294 DUP6 PUSH2 0x14A JUMP JUMPDEST DUP4 ADD DUP3 PUSH2 0x23B JUMP JUMPDEST POP POP JUMPDEST POP POP POP JUMP JUMPDEST PUSH1 0x0 DUP3 DUP3 SHR SWAP1 POP SWAP3 SWAP2 POP POP JUMP JUMPDEST PUSH1 0x0 PUSH2 0x2C2 PUSH1 0x0 NOT DUP5 PUSH1 0x8 MUL PUSH2 0x2A4 JUMP JUMPDEST NOT DUP1 DUP4 AND SWAP2 POP POP SWAP3 SWAP2 POP POP JUMP JUMPDEST PUSH1 0x0 PUSH2 0x2DB DUP4 DUP4 PUSH2 0x2B1 JUMP JUMPDEST SWAP2 POP DUP3 PUSH1 0x2 MUL DUP3 OR SWAP1 POP SWAP3 SWAP2 POP POP JUMP JUMPDEST PUSH2 0x2F4 DUP3 PUSH2 0x9B JUMP JUMPDEST PUSH8 0xFFFFFFFFFFFFFFFF DUP2 GT ISZERO PUSH2 0x30D JUMPI PUSH2 0x30C PUSH2 0xA6 JUMP JUMPDEST JUMPDEST PUSH2 0x317 DUP3 SLOAD PUSH2 0x104 JUMP JUMPDEST PUSH2 0x322 DUP3 DUP3 DUP6 PUSH2 0x25E JUMP JUMPDEST PUSH1 0x0 PUSH1 0x20 SWAP1 POP PUSH1 0x1F DUP4 GT PUSH1 0x1 DUP2 EQ PUSH2 0x355 JUMPI PUSH1 0x0 DUP5 ISZERO PUSH2 0x343 JUMPI DUP3 DUP8 ADD MLOAD SWAP1 POP JUMPDEST PUSH2 0x34D DUP6 DUP3 PUSH2 0x2CF JUMP JUMPDEST DUP7 SSTORE POP PUSH2 0x3B5 JUMP JUMPDEST PUSH1 0x1F NOT DUP5 AND PUSH2 0x363 DUP7 PUSH2 0x135 JUMP JUMPDEST PUSH1 0x0 JUMPDEST DUP3 DUP2 LT ISZERO PUSH2 0x38B JUMPI DUP5 DUP10 ADD MLOAD DUP3 SSTORE PUSH1 0x1 DUP3 ADD SWAP2 POP PUSH1 0x20 DUP6 ADD SWAP5 POP PUSH1 0x20 DUP2 ADD SWAP1 POP PUSH2 0x366 JUMP JUMPDEST DUP7 DUP4 LT ISZERO PUSH2 0x3A8 JUMPI DUP5 DUP10 ADD MLOAD PUSH2 0x3A4 PUSH1 0x1F DUP10 AND DUP3 PUSH2 0x2B1 JUMP JUMPDEST DUP4 SSTORE POP JUMPDEST PUSH1 0x1 PUSH1 0x2 DUP9 MUL ADD DUP9 SSTORE POP POP POP JUMPDEST POP POP POP POP POP POP JUMP JUMPDEST PUSH2 0x388 DUP1 PUSH2 0x3CC PUSH1 0x0 CODECOPY PUSH1 0x0 RETURN INVALID PUSH1 0x80 PUSH1 0x40 MSTORE CALLVALUE DUP1 ISZERO PUSH2 0x10 JUMPI PUSH1 0x0 DUP1 REVERT JUMPDEST POP PUSH1 0x4 CALLDATASIZE LT PUSH2 0x41 JUMPI PUSH1 0x0 CALLDATALOAD PUSH1 0xE0 SHR DUP1 PUSH4 0x8DA5CB5B EQ PUSH2 0x46 JUMPI DUP1 PUSH4 0xCE6D41DE EQ PUSH2 0x64 JUMPI DUP1 PUSH4 0xE21F37CE EQ PUSH2 0x82 JUMPI JUMPDEST PUSH1 0x0 DUP1 REVERT JUMPDEST PUSH2 0x4E PUSH2 0xA0 JUMP JUMPDEST PUSH1 0x40 MLOAD PUSH2 0x5B SWAP2 SWAP1 PUSH2 0x225 JUMP JUMPDEST PUSH1 0x40 MLOAD DUP1 SWAP2 SUB SWAP1 RETURN JUMPDEST PUSH2 0x6C PUSH2 0xC4 JUMP JUMPDEST PUSH1 0x40 MLOAD PUSH2 0x79 SWAP2 SWAP1 PUSH2 0x2D0 JUMP JUMPDEST PUSH1 0x40 MLOAD DUP1 SWAP2 SUB SWAP1 RETURN JUMPDEST PUSH2 0x8A PUSH2 0x156 JUMP JUMPDEST PUSH1 0x40 MLOAD PUSH2 0x97 SWAP2 SWAP1 PUSH2 0x2D0 JUMP JUMPDEST PUSH1 0x40 MLOAD DUP1 SWAP2 SUB SWAP1 RETURN JUMPDEST PUSH1 0x0 DUP1 SLOAD SWAP1 PUSH2 0x100 EXP SWAP1 DIV PUSH20 0xFFFFFFFFFFFFFFFFFFFFFFFFFFFFFFFFFFFFFFFF AND DUP2 JUMP JUMPDEST PUSH1 0x60 PUSH1 0x1 DUP1 SLOAD PUSH2 0xD3 SWAP1 PUSH2 0x321 JUMP JUMPDEST DUP1 PUSH1 0x1F ADD PUSH1 0x20 DUP1 SWAP2 DIV MUL PUSH1 0x20 ADD PUSH1 0x40 MLOAD SWAP1 DUP2 ADD PUSH1 0x40 MSTORE DUP1 SWAP3 SWAP2 SWAP1 DUP2 DUP2 MSTORE PUSH1 0x20 ADD DUP3 DUP1 SLOAD PUSH2 0xFF SWAP1 PUSH2 0x321 JUMP JUMPDEST DUP1 ISZERO PUSH2 0x14C JUMPI DUP1 PUSH1 0x1F LT PUSH2 0x121 JUMPI PUSH2 0x100 DUP1 DUP4 SLOAD DIV MUL DUP4 MSTORE SWAP2 PUSH1 0x20 ADD SWAP2 PUSH2 0x14C JUMP JUMPDEST DUP3 ADD SWAP2 SWAP1 PUSH1 0x0 MSTORE PUSH1 0x20 PUSH1 0x0 KECCAK256 SWAP1 JUMPDEST DUP2 SLOAD DUP2 MSTORE SWAP1 PUSH1 0x1 ADD SWAP1 PUSH1 0x20 ADD DUP1 DUP4 GT PUSH2 0x12F JUMPI DUP3 SWAP1 SUB PUSH1 0x1F AND DUP3 ADD SWAP2 JUMPDEST POP POP POP POP POP SWAP1 POP SWAP1 JUMP JUMPDEST PUSH1 0x1 DUP1 SLOAD PUSH2 0x163 SWAP1 PUSH2 0x321 JUMP JUMPDEST DUP1 PUSH1 0x1F ADD PUSH1 0x20 DUP1 SWAP2 DIV MUL PUSH1 0x20 ADD PUSH1 0x40 MLOAD SWAP1 DUP2 ADD PUSH1 0x40 MSTORE DUP1 SWAP3 SWAP2 SWAP1 DUP2 DUP2 MSTORE PUSH1 0x20 ADD DUP3 DUP1 SLOAD PUSH2 0x18F SWAP1 PUSH2 0x321 JUMP JUMPDEST DUP1 ISZERO PUSH2 0x1DC JUMPI DUP1 PUSH1 0x1F LT PUSH2 0x1B1 JUMPI PUSH2 0x100 DUP1 DUP4 SLOAD DIV MUL DUP4 MSTORE SWAP2 PUSH1 0x20 ADD SWAP2 PUSH2 0x1DC JUMP JUMPDEST DUP3 ADD SWAP2 SWAP1 PUSH1 0x0 MSTORE PUSH1 0x20 PUSH1 0x0 KECCAK256 SWAP1 JUMPDEST DUP2 SLOAD DUP2 MSTORE SWAP1 PUSH1 0x1 ADD SWAP1 PUSH1 0x20 ADD DUP1 DUP4 GT PUSH2 0x1BF JUMPI DUP3 SWAP1 SUB PUSH1 0x1F AND DUP3 ADD SWAP2 JUMPDEST POP POP POP POP POP DUP2 JUMP JUMPDEST PUSH1 0x0 PUSH20 0xFFFFFFFFFFFFFFFFFFFFFFFFFFFFFFFFFFFFFFFF DUP3 AND SWAP1 POP SWAP2 SWAP1 POP JUMP JUMPDEST PUSH1 0x0 PUSH2 0x20F DUP3 PUSH2 0x1E4 JUMP JUMPDEST SWAP1 POP SWAP2 SWAP1 POP JUMP JUMPDEST PUSH2 0x21F DUP2 PUSH2 0x204 JUMP JUMPDEST DUP3 MSTORE POP POP JUMP JUMPDEST PUSH1 0x0 PUSH1 0x20 DUP3 ADD SWAP1 POP PUSH2 0x23A PUSH1 0x0 DUP4 ADD DUP5 PUSH2 0x216 JUMP JUMPDEST SWAP3 SWAP2 POP POP JUMP JUMPDEST PUSH1 0x0 DUP2 MLOAD SWAP1 POP SWAP2 SWAP1 POP JUMP JUMPDEST PUSH1 0x0 DUP3 DUP3 MSTORE PUSH1 0x20 DUP3 ADD SWAP1 POP SWAP3 SWAP2 POP POP JUMP JUMPDEST PUSH1 0x0 JUMPDEST DUP4 DUP2 LT ISZERO PUSH2 0x27A JUMPI DUP1 DUP3 ADD MLOAD DUP2 DUP5 ADD MSTORE PUSH1 0x20 DUP2 ADD SWAP1 POP PUSH2 0x25F JUMP JUMPDEST PUSH1 0x0 DUP5 DUP5 ADD MSTORE POP POP POP POP JUMP JUMPDEST PUSH1 0x0 PUSH1 0x1F NOT PUSH1 0x1F DUP4 ADD AND SWAP1 POP SWAP2 SWAP1 POP JUMP JUMPDEST PUSH1 0x0 PUSH2 0x2A2 DUP3 PUSH2 0x240 JUMP JUMPDEST PUSH2 0x2AC DUP2 DUP6 PUSH2 0x24B JUMP JUMPDEST SWAP4 POP PUSH2 0x2BC DUP2 DUP6 PUSH1 0x20 DUP7 ADD PUSH2 0x25C JUMP JUMPDEST PUSH2 0x2C5 DUP2 PUSH2 0x286 JUMP JUMPDEST DUP5 ADD SWAP2 POP POP SWAP3 SWAP2 POP POP JUMP JUMPDEST PUSH1 0x0 PUSH1 0x20 DUP3 ADD SWAP1 POP DUP2 DUP2 SUB PUSH1 0x0 DUP4 ADD MSTORE PUSH2 0x2EA DUP2 DUP5 PUSH2 0x297 JUMP JUMPDEST SWAP1 POP SWAP3 SWAP2 POP POP JUMP JUMPDEST PUSH32 0x4E487B7100000000000000000000000000000000000000000000000000000000 PUSH1 0x0 MSTORE PUSH1 0x22 PUSH1 0x4 MSTORE PUSH1 0x24 PUSH1 0x0 REVERT JUMPDEST PUSH1 0x0 PUSH1 0x2 DUP3 DIV SWAP1 POP PUSH1 0x1 DUP3 AND DUP1 PUSH2 0x339 JUMPI PUSH1 0x7F DUP3 AND SWAP2 POP JUMPDEST PUSH1 0x20 DUP3 LT DUP2 SUB PUSH2 0x34C JUMPI PUSH2 0x34B PUSH2 0x2F2 JUMP JUMPDEST JUMPDEST POP SWAP2 SWAP1 POP JUMP INVALID LOG2 PUSH5 0x6970667358 0x22 SLT KECCAK256 0xEF SWAP12 0xED 0xE1 0xE0 0xFB BASEFEE 0xC6 0x1F 0xD7 STATICCALL PUSH17 0x18DDDAD27BD9CAF64ED256E7CD833CF45D 0xDA SWAP16 0x4D PUSH5 0x736F6C6343 STOP ADDMOD SHR STOP CALLER "
        },
        "methodIdentifiers": {
          "getMessage()": "ce6d41de",
          "message()": "e21f37ce",
          "owner()": "8da5cb5b"
        }
      }
    }
  }
}